:0C0000000C942A000C9400000C940000EA
:10000C000C9400000C9400000C9400000C94000064
:10001C000C9400000C9400000C9400000C94000054
:10002C000C9400000C9400000C9400000C944800FC
:10003C000C9400000C9400000C9400000C94000034
:10004C000C9400000C940000F894EE27ECBBF1E04B
:10005C00FBBFEBBFE5BFF8E1F1BDE1BD8DE0A2E078
:10006C00BB27ED938A95E9F780E094E0A0E6ED9349
:10007C000197E9F7EFE5EDBFE4E0EEBFC0E6D1E0B4
:10008C000C948C000A921A929A93AA93BA93EA93BC
:10009C00FA93EFB7EA930E94DC0005B11127023FF7
:1000AC00E0E01E0710F4015010400F3DE0E01E0789
:1000BC0010F4015010400E3CE0E01E0710F401500B
:1000CC0010400F5F1F4FD801EAE0F0E00E94D9000A
:1000DC003E2F4FD0D801EAE0F0E00E94D9002E2F3D
:1000EC0048D0E02FE295E07FE22BE5BB32BBECEE93
:1000FC00E6B90E94E1002496E991EFBFF991E991EC
:10010C00B991A9919991199009901895E0E0EBBBE0
:10011C00EABBE8BBE7BBE5BBEFEFE4BBE0E0E2BB6F
:10012C00EFEFE1BBE0E0E3BFE2BFECBFEFBDEEBD44
:10013C00EDBDECBDE7BDE6BDEBBDEABDE9BDE8BD7F
:10014C00E2BDE5BDE4BDE3BDE5BFE4BFE9BFEAB98F
:10015C00E0E8E8B9E0E0E0BFE1E4E7B9ECEEE6B9ED
:10016C003D9AE0E0EDB9E6BFE1E0EFBF7894FFCF58
:10017C00FFCFD801EAE0F0E00E94C6008F0108959D
:10018C000024112490E1AA0FBB1F001C111C0E1A95
:10019C001F0A18F40E0E1F1E01C0A1609A9599F744
:1001AC00FD01D0010895ECDFFD0108953A932A93E7
:1001BC001A930A9308953B812A8119810881089525
:00000001FF
