:100000000C9434000C9451000C9451000C94510049
:100010000C9451000C9451000C9451000C9451001C
:100020000C9451000C9451000C9451000C9451000C
:100030000C9451000C9451000C9451000C945100FC
:100040000C9451000C9451000C9451000C945100EC
:100050000C9451000C9451000C9451000C945100DC
:100060000C9451000C94510011241FBECFEFD8E026
:10007000DEBFCDBF11E0A0E0B1E0E0E4F2E002C0FD
:1000800005900D92A831B107D9F721E0A8E1B1E0C0
:1000900001C01D92AC31B207E1F70E94FD000C9443
:1000A0001E010C9400002A988EBD0DB407FEFDCFF2
:1000B0006EBD0DB407FEFDCF2A9A0895CF93C0E020
:1000C0006FE08C2F0E945300CF5FC430C9F7CF91EF
:1000D000089584B18C6284B985B1837D85B98CB56E
:1000E00081658CBD6FE089E00E94530063E08BE086
:1000F0000E94530062E08AE00E94530061E08CE0BD
:100100000E9453000E945E0008951AB88FE08BB9D8
:1001100087B918B8489903C0E0E0F0E002C0E4E015
:10012000F0E0499902C0E1E0F0E04A9902C0E2E063
:10013000F0E04B9902C0E3E0F0E08FE08AB91BB831
:1001400017B888B9309903C080E090E002C083E01E
:1001500090E0319902C081E090E0329B1DC0E43014
:10016000F105A4F4833091051CF013C082E090E007
:100170009F01220F331FE20FF31FE80FF91FEE0F4D
:10018000FF1FE050FF4F8081918108958FEF9FEF17
:1001900008958FEF9FEF0895E430F1053CF38FEF62
:1001A0009FEF0895FC01A8E1B1E01C9211961C920A
:1001B000119712961C92129713961C9218161906F4
:1001C000DCF460E070E050E040E020E030E081E00E
:1001D000A0E003C0572F762F692F982F41119A2F37
:1001E0002F5F3F4F452FE217F307A1F7E8E1F1E05A
:1001F000508371836283938308950E946900C8E1EC
:10020000D1E00E9485008830910598F40E94D200C8
:10021000688181E00E945300698182E00E9453005E
:100220006A8183E00E9453006B8184E00E94530046
:10023000E8CF029631F70E945E00E3CFF894FFCF3B
:10024000010002000300040005000600070008008A
:080250000900FEFF0000FEFFA3
:00000001FF
