:100000000C9434000C943E000C943E000C943E0082
:100010000C943E000C943E000C943E000C943E0068
:100020000C943E000C943E000C943E000C943E0058
:100030000C943E000C943E000C943E000C943E0048
:100040000C943E000C943E000C943E000C943E0038
:100050000C943E000C943E000C943E000C943E0028
:100060000C943E000C943E0011241FBECFEFD8E04C
:10007000DEBFCDBF0E9440000C94C4000C94000071
:100080001F93CF93DF9363E080E490E00E94B6007B
:1000900063E081E490E00E94B60063E082E490E0D7
:1000A0000E94B60063E083E490E00E94B60080E422
:1000B00090E00E94AE00C82F81E490E00E94AE0064
:1000C000182F82E490E00E94AE00D82F83E490E0E5
:1000D0000E94AE002C2F30E0A901440F551F240FC1
:1000E000351F1D9F200D311D1124682F70E06250B7
:1000F0007109C9010E94860084E490E00E94B60064
:1001000080E090E0DF91CF911F91089597FB072E3B
:1001100016F4009407D077FD09D00E949A0007FCDE
:1001200005D03EF4909581959F4F08957095619507
:100130007F4F0895AA1BBB1B51E107C0AA1FBB1F1D
:10014000A617B70710F0A61BB70B881F991F5A9563
:10015000A9F780959095BC01CD010895F999FECF3E
:1001600092BD81BDF89A992780B50895262FF999F7
:10017000FECF1FBA92BD81BD20BD0FB6F894FA9A8A
:0C018000F99A0FBE01960895F894FFCF85
:00000001FF
