S01700004763634170706C69636174696F6E312E737265635B
S11300000C9434000C943E000C943E000C943E007E
S11300100C943E000C943E000C943E000C943E0064
S11300200C943E000C943E000C943E000C943E0054
S11300300C943E000C943E000C943E000C943E0044
S11300400C943E000C943E000C943E000C943E0034
S11300500C943E000C943E000C943E000C943E0024
S11300600C943E000C943E0011241FBECFEFD8E048
S1130070DEBFCDBF0E9440000C9489000C940000A8
S11300808FEF84B915B81AB881E08BB961E070E0DC
S113009048993DC020E030E045B1CB01022E02C0BA
S11300A0880F991F0A94E2F7942F982B95B94FE77C
S11300B058E3E1E041505040E040E1F700C0000067
S11300C095B18095892385B92F5F3F4F283031053D
S11300D019F726E030E045B1CB01022E02C0880FAB
S11300E0991F0A94E2F7942F982B95B94FE758E398
S11300F0E1E041505040E040E1F700C0000095B11C
S11301008095892385B92150310929F7C1CF15B8C4
S1090110BFCFF894FFCFFD
S9030000FC
