S01400004C43445F6669726D776172652E7372656381
S11300000C9434000C9451000C9451000C94510045
S11300100C9451000C9451000C9451000C94510018
S11300200C9451000C9451000C9451000C94510008
S11300300C9451000C9451000C9451000C945100F8
S11300400C9451000C9451000C9451000C945100E8
S11300500C9451000C9451000C9451000C945100D8
S11300600C9451000C94510011241FBECFEFD8E022
S1130070DEBFCDBF11E0A0E0B1E0EAE4FBE002C0E6
S113008005900D92A833B107D9F721E0A8E3B1E0B8
S113009001C01D92A735B207E1F70E9457020C94E4
S11300A0A3050C940000409A91E19A95F1F795B15B
S11300B09F7095B995B18295807F892B85B94098B9
S11300C081E18A95F1F70895CF93C82F611102C099
S11300D0419801C0419A8C2F82958F700E945300E1
S11300E08C2F0E945300CF91089561E00E94640018
S11300F0089585EA9EE00197F1F700C0000083E0CF
S11301000E94530087EE93E00197F1F700C00000CE
S113011083E00E94530091E29A95F1F7000083E096
S11301200E94530089EF90E00197F1F700C00000AE
S113013082E00E94530089EF90E00197F1F700C03C
S1130140000060E088E20E94640089EF90E001977B
S1130150F1F700C0000060E08CE00E94640089EFC9
S113016090E00197F1F700C0000060E086E00E9493
S1130170640089EF90E00197F1F700C00000089552
S113018060E081E00E94640087E791E00197F1F765
S11301900895CF93DF93EC018881882331F0219671
S11301A00E94750089918111FBCFDF91CF91089551
S11301B060E08CE10E94640082E18A95F1F7089581
S11301C0982F9695969596959E71292F220F220F1A
S11301D0920F8F70890F089584EA8093BC00ECEB32
S11301E0F0E080818823ECF708958093BB0084E8D5
S11301F08093BC00ECEBF0E080818823ECF7089559
S1130200CF93DF93C82FD62F0E94EC008D2F0E942E
S1130210F5008C2F0E94F50084E98093BC00DF91E7
S1130220CF91089584EC8093BC00ECEBF0E08081E6
S11302308823ECF78091BB00089584E88093BC0088
S1130240ECEBF0E080818823ECF78091BB0008950B
S1130250DF92EF92FF920F931F93CF93DF9300D01F
S113026000D01F92CDB7DEB7FE01319695E0DF01D5
S11302701D929A95E9F79AB121E030E002C0220F6D
S1130280331F8A95E2F7922B9AB99BB1822F8095FE
S113029098239BB9E3E9F1E13197F1F700C000003D
S11302A09BB1922B9BB99AB189238AB9F0E5FA954F
S11302B0F1F789B190E082239323892BD1F3DE01F6
S11302C011967E0186E0E80EF11C01E010E0FD01CC
S11302D01C9247E050E08DE08A95F1F7000089B167
S11302E090E082239323892B51F0D080C801042EFF
S11302F002C0880F991F0A94E2F78D29808389B17F
S113030090E082239323892BD1F34150510918F7AC
S11303101196EA16FB06D9F68981DB0111968C93B6
S113032011978B818C9381E090E00F900F900F9048
S11303300F900F90DF91CF911F910F91FF90EF904D
S1130340DF90089560ED80E00E9400010E94EC00BF
S113035081ED0E94F5000E941201809356010E94D3
S11303601201809355010E941201809354010E944E
S11303701201809353010E941201809352010E9442
S11303801201809351010E941D018093500184E960
S11303908093BC000895809156010E94E0008093F0
S11303A05601809155010E94E0008093550180918F
S11303B054010E94E00080935401809153010E94F3
S11303C0E00080935301809150010E94E0008093EB
S11303D05001809151010E94E0008093510180916D
S11303E052010E94E00080935201089580915601C9
S11303F01F928F93809155011F928F938091540186
S11304001F928F9380E091E09F938F938AE391E012
S11304109F938F930E94B902809150011F928F93F2
S1130420809151011F928F93809152011F928F935B
S11304308FE091E09F938F9383E491E09F938F9358
S11304400E94B9028DB79EB744960FB6F8949EBF2A
S11304500FBE8DBF0895882379F080E291E09F93C9
S11304608F9388E391E09F938F930E94B9020F903A
S11304700F900F900F900895EEE4F1E080811F92A9
S11304808F9381811F928F938CE291E09F938F933E
S113049088E391E09F938F930E94B9028DB79EB732
S11304A008960FB6F8949EBF0FBE8DBF089515B879
S11304B018B81BB88FEF87B984B91AB880E2809353
S11304C0B8000E94790087EA91E60197F1F700C02D
S11304D00000D12CEE24E394FF24F39400E001C047
S11304E0E12EC9B1C270D0E01F2D209709F0102F62
S11304F04A9B06C0D11003C00E94D80001C0D02E70
S1130500E11619F00E94C000DF2C83ED90E30197FF
S1130510F1F700C00000CD2BB9F40E94A2010E94A3
S1130520CB010E94F601602F80E80E94640083E4FE
S113053091E00E94C900602F80EC0E9464008AE36D
S113054091E00E94C900CCCF6EE471E0802F0E943C
S113055028012F2D019709F4202F822F0E942B02AE
S1130560602F80E80E94640088E391E00E94C90043
S1130570B7CFAEE0B0E0EFEBF2E00C947A050D8972
S11305801E8986E08C831A8309838FEF9FE79E83FD
S11305908D83AE01475E5F4F6F89788DCE010196E2
S11305A00E94DB02EF81F885E00FF11F10822E9686
S11305B0E4E00C949605ABE0B0E0E1EEF2E00C94DC
S11305C06C056C017B018A01FC0117821682838110
S11305D081FFCCC1CE0101963C01F6019381F70164
S11305E093FD859193FF81917F01882309F4BAC11A
S11305F0853239F493FD859193FF81917F01853292
S113060029F4B60190E00E94D204E7CF912C212C6A
S1130610312CFFE1F315D8F08B3279F038F48032C5
S113062079F08332A1F4232D20611DC08D3261F055
S1130630803369F4232D216016C0832D8260382E07
S1130640E32DE4603E2E2AC0F32DF8601DC037FC74
S11306502DC020ED280F2A3040F08E32B9F436FC3C
S113066081C1232D2064322E19C036FE06C08AE0D3
S1130670989E200D1124922E11C0EAE02E9E200D8A
S11306801124222EF32DF0623F2E08C08C3621F463
S1130690832D8068382E02C0883641F4F70193FD1B
S11306A0859193FF81917F018111B3CF982F9F7D15
S11306B09554933028F40C5F1F4F9FE399830DC02A
S11306C0833631F0833771F0833509F059C021C086
S11306D0F801808189830E5F1F4F88248394912CB5
S11306E0530113C02801F2E04F0E511CF801A08001
S11306F0B18036FE03C0692D70E002C06FEF7FEF5A
S1130700C5010E94C7044C018201F32DFF773F2EDF
S113071016C0280122E0420E511CF801A080B180CD
S113072036FE03C0692D70E002C06FEF7FEFC50194
S11307300E94BC044C01F32DF0683F2E820133FC6F
S11307401BC0822D90E088169906B0F4B60180E2B1
S113075090E00E94D2042A94F4CFF50137FC8591ED
S113076037FE81915F01B60190E00E94D20421100E
S11307702A9421E0821A91088114910471F7E8C047
S1130780843611F0893641F5F80137FE07C06081DF
S11307907181828193810C5F1F4F08C060817181D8
S11307A0072E000C880B990B0E5F1F4FF32DFF765D
S11307B03F2E97FF09C090958095709561957F4F66
S11307C08F4F9F4FF0683F2E2AE030E0A3010E9434
S11307D00E05882E861845C0853731F4232D2F7ECB
S11307E0B22E2AE030E025C0932D997FB92E8F36A2
S11307F0C1F018F4883579F0B5C0803719F088371E
S113080021F0B0C0E92FE061BE2EB4FE0DC0FB2D77
S1130810F460BF2E09C034FE0AC0292F2660B22E10
S113082006C028E030E005C020E130E002C020E14D
S113083032E0F801B7FE07C0608171818281938143
S11308400C5F1F4F06C06081718180E090E00E5FF5
S11308501F4FA3010E940E05882E8618FB2DFF77DB
S11308603F2E36FE0DC0232D2E7FA22E891458F460
S113087034FE0BC032FC09C0832D8E7EA82E05C029
S1130880B82CA32C03C0B82C01C0B92CA4FE0FC0F3
S1130890FE01E80DF11D8081803321F49A2D997EAB
S11308A0A92E09C0A2FE06C0B394B39404C08A2D35
S11308B0867809F0B394A3FC11C0A0FE06C0B2145C
S11308C088F4280C922C9B180EC0B21460F4B60164
S11308D080E290E00E94D204B394F7CFB21418F4EB
S11308E02B1802C0982C212CA4FE10C0B60180E362
S11308F090E00E94D204A2FE17C0A1FC03C088E7C6
S113090090E002C088E590E0B6010CC08A2D86789C
S113091059F0A1FE02C08BE201C080E2A7FC8DE287
S1130920B60190E00E94D204891438F4B60180E341
S113093090E00E94D2049A94F7CF8A94F301E80DD0
S1130940F11D8081B60190E00E94D2048110F5CFA0
S1130950222009F442CEB60180E290E00E94D20443
S11309602A94F6CFF6018681978102C08FEF9FEF1C
S11309702B96E2E10C948805FC01059061507040CF
S11309800110D8F7809590958E0F9F1F0895FC0154
S11309906150704001900110D8F7809590958E0FAA
S11309A09F1F08950F931F93CF93DF93FB01238120
S11309B021FD03C08FEF9FEF2CC022FF16C046819C
S11309C05781248135814217530744F4A081B181B2
S11309D09D012F5F3F4F318320838C932681378184
S11309E02F5F3F4F3783268314C08B01EC01FB013B
S11309F00084F185E02D0995892BE1F6D80116963E
S1130A008D919C911797019617969C938E931697A8
S1130A10CE01DF91CF911F910F910895FA01AA277A
S1130A20283051F1203181F1E8946F936E7F6E5F2D
S1130A307F4F8F4F9F4FAF4FB1E03ED0B4E03CD0DB
S1130A40670F781F891F9A1FA11D680F791F8A1FBE
S1130A50911DA11D6A0F711D811D911DA11D20D025
S1130A6009F468943F912AE0269F11243019305DDF
S1130A703193DEF6CF010895462F4770405D4193D0
S1130A80B3E00FD0C9F7F6CF462F4F70405D4A331D
S1130A9018F0495D31FD4052419302D0A9F7EACFE5
S1130AA0B4E0A6959795879577956795BA95C9F714
S1130AB000976105710508959B01AC010A2E069407
S1130AC05795479537952795BA95C9F7620F731FC0
S1130AD0841F951FA01D08952F923F924F925F92FD
S1130AE06F927F928F929F92AF92BF92CF92DF923A
S1130AF0EF92FF920F931F93CF93DF93CDB7DEB79F
S1130B00CA1BDB0B0FB6F894DEBF0FBECDBF099432
S1130B102A88398848885F846E847D848C849B8489
S1130B20AA84B984C884DF80EE80FD800C811B8197
S1130B30AA81B981CE0FD11D0FB6F894DEBF0FBEC6
S10D0B40CDBFED010895F894FFCF36
S1130B4A253032642E253032642E25303264002555
S1130B5A3032642E253032642E323025303264002D
S1130B6A2D2D202525202D2D202A430025752025CD
S10B0B7A25202575202A430003
S9030000FC
